{"abi":[{"type":"constructor","inputs":[{"name":"owner_","type":"address","internalType":"address"}],"stateMutability":"nonpayable"},{"type":"function","name":"acceptOwnership","inputs":[],"outputs":[],"stateMutability":"nonpayable"},{"type":"function","name":"deposit","inputs":[{"name":"vault","type":"address","internalType":"address"},{"name":"assets","type":"uint256","internalType":"uint256"},{"name":"receiver","type":"address","internalType":"address"}],"outputs":[{"name":"shares","type":"uint256","internalType":"uint256"}],"stateMutability":"nonpayable"},{"type":"function","name":"emergencyClaim","inputs":[{"name":"vault","type":"address","internalType":"address"}],"outputs":[{"name":"assets","type":"uint256","internalType":"uint256"}],"stateMutability":"nonpayable"},{"type":"function","name":"owner","inputs":[],"outputs":[{"name":"","type":"address","internalType":"address"}],"stateMutability":"view"},{"type":"function","name":"pendingOwner","inputs":[],"outputs":[{"name":"","type":"address","internalType":"address"}],"stateMutability":"view"},{"type":"function","name":"previewUserAssets","inputs":[{"name":"vault","type":"address","internalType":"address"},{"name":"user","type":"address","internalType":"address"}],"outputs":[{"name":"","type":"uint256","internalType":"uint256"}],"stateMutability":"view"},{"type":"function","name":"renounceOwnership","inputs":[],"outputs":[],"stateMutability":"nonpayable"},{"type":"function","name":"transferOwnership","inputs":[{"name":"newOwner","type":"address","internalType":"address"}],"outputs":[],"stateMutability":"nonpayable"},{"type":"function","name":"triggerEmergency","inputs":[{"name":"vault","type":"address","internalType":"address"}],"outputs":[],"stateMutability":"nonpayable"},{"type":"function","name":"userShares","inputs":[{"name":"vault","type":"address","internalType":"address"},{"name":"user","type":"address","internalType":"address"}],"outputs":[{"name":"shares","type":"uint256","internalType":"uint256"}],"stateMutability":"view"},{"type":"function","name":"vaultStates","inputs":[{"name":"vault","type":"address","internalType":"address"}],"outputs":[{"name":"emergency","type":"bool","internalType":"bool"},{"name":"totalShares","type":"uint256","internalType":"uint256"},{"name":"withdrawnAssets","type":"uint256","internalType":"uint256"}],"stateMutability":"view"},{"type":"function","name":"withdraw","inputs":[{"name":"vault","type":"address","internalType":"address"},{"name":"shares","type":"uint256","internalType":"uint256"},{"name":"receiver","type":"address","internalType":"address"}],"outputs":[{"name":"assets","type":"uint256","internalType":"uint256"}],"stateMutability":"nonpayable"},{"type":"event","name":"Deposit","inputs":[{"name":"vault","type":"address","indexed":true,"internalType":"address"},{"name":"user","type":"address","indexed":true,"internalType":"address"},{"name":"assets","type":"uint256","indexed":false,"internalType":"uint256"},{"name":"shares","type":"uint256","indexed":false,"internalType":"uint256"}],"anonymous":false},{"type":"event","name":"EmergencyClaim","inputs":[{"name":"vault","type":"address","indexed":true,"internalType":"address"},{"name":"user","type":"address","indexed":true,"internalType":"address"},{"name":"assets","type":"uint256","indexed":false,"internalType":"uint256"}],"anonymous":false},{"type":"event","name":"EmergencyTriggered","inputs":[{"name":"vault","type":"address","indexed":true,"internalType":"address"},{"name":"totalAssets","type":"uint256","indexed":false,"internalType":"uint256"}],"anonymous":false},{"type":"event","name":"OwnershipTransferStarted","inputs":[{"name":"previousOwner","type":"address","indexed":true,"internalType":"address"},{"name":"newOwner","type":"address","indexed":true,"internalType":"address"}],"anonymous":false},{"type":"event","name":"OwnershipTransferred","inputs":[{"name":"previousOwner","type":"address","indexed":true,"internalType":"address"},{"name":"newOwner","type":"address","indexed":true,"internalType":"address"}],"anonymous":false},{"type":"event","name":"Withdraw","inputs":[{"name":"vault","type":"address","indexed":true,"internalType":"address"},{"name":"user","type":"address","indexed":true,"internalType":"address"},{"name":"assets","type":"uint256","indexed":false,"internalType":"uint256"},{"name":"shares","type":"uint256","indexed":false,"internalType":"uint256"}],"anonymous":false},{"type":"error","name":"OwnableInvalidOwner","inputs":[{"name":"owner","type":"address","internalType":"address"}]},{"type":"error","name":"OwnableUnauthorizedAccount","inputs":[{"name":"account","type":"address","internalType":"address"}]},{"type":"error","name":"SafeERC20FailedOperation","inputs":[{"name":"token","type":"address","internalType":"address"}]}],"bytecode":{"object":"0x608060405234801561000f575f80fd5b5060405161102638038061102683398101604081905261002e916100d7565b806001600160a01b03811661005c57604051631e4fbdf760e01b81525f600482015260240160405180910390fd5b6100658161006c565b5050610104565b600180546001600160a01b031916905561008581610088565b50565b5f80546001600160a01b038381166001600160a01b0319831681178455604051919092169283917f8be0079c531659141344cd1fd0a4f28419497f9722a3daafe3b4186f6b6457e09190a35050565b5f602082840312156100e7575f80fd5b81516001600160a01b03811681146100fd575f80fd5b9392505050565b610f15806101115f395ff3fe608060405234801561000f575f80fd5b50600436106100b1575f3560e01c806379ba50971161006e57806379ba5097146101855780638da5cb5b1461018d578063e30c3978146101b1578063f2fde38b146101c2578063f45346dc146101d5578063f868f5e3146101e8575f80fd5b80631142160c146100b5578063333d466c146100f2578063472db2f1146101055780635f49202f1461011857806369328dec14610168578063715018a61461017b575b5f80fd5b6100df6100c3366004610da5565b600360209081525f928352604080842090915290825290205481565b6040519081526020015b60405180910390f35b6100df610100366004610da5565b6101fb565b6100df610113366004610ddc565b6102ff565b61014b610126366004610ddc565b600260208190525f918252604090912080546001820154919092015460ff9092169183565b6040805193151584526020840192909252908201526060016100e9565b6100df610176366004610dfe565b6104bf565b6101836106a0565b005b6101836106b3565b5f546001600160a01b03165b6040516001600160a01b0390911681526020016100e9565b6001546001600160a01b0316610199565b6101836101d0366004610ddc565b6106f7565b6100df6101e3366004610dfe565b610767565b6101836101f6366004610ddc565b610975565b6001600160a01b0382165f9081526002602052604081205460ff1615610272576001600160a01b038084165f90815260026020818152604080842060018101546003845282862096891686529590925290922054908201549192916102609190610e51565b61026a9190610e68565b9150506102f9565b6001600160a01b038381165f818152600360209081526040808320948716835293905282902054915163266d6a8360e11b8152600481019290925290634cdad50690602401602060405180830381865afa1580156102d2573d5f803e3d5ffd5b505050506040513d601f19601f820116820180604052508101906102f69190610e87565b90505b92915050565b6001600160a01b0381165f908152600260205260408120805460ff1661035c5760405162461bcd60e51b815260206004820152600d60248201526c6e6f7420656d657267656e637960981b60448201526064015b60405180910390fd5b6001600160a01b0383165f908152600360209081526040808320338452909152902054806103bf5760405162461bcd60e51b815260206004820152601060248201526f6e6f7468696e6720746f20636c61696d60801b6044820152606401610353565b6001600160a01b0384165f908152600360209081526040808320338452909152812055600182015460028301546103f7908390610e51565b6104019190610e68565b92506104783384866001600160a01b03166338d52e0f6040518163ffffffff1660e01b8152600401602060405180830381865afa158015610444573d5f803e3d5ffd5b505050506040513d601f19601f820116820180604052508101906104689190610e9e565b6001600160a01b03169190610b1c565b60405183815233906001600160a01b038616907f093daaab9d526308dca0c91e9acd89554fb3b95cbafd307e6dca9eecba32847c9060200160405180910390a35050919050565b6001600160a01b0383165f9081526002602052604081205460ff16156105135760405162461bcd60e51b8152602060048201526009602482015268656d657267656e637960b81b6044820152606401610353565b6001600160a01b0384165f9081526003602090815260408083203384529091529020548311156105745760405162461bcd60e51b815260206004820152600c60248201526b1a5b9cdd59999a58da595b9d60a21b6044820152606401610353565b6001600160a01b0384165f908152600360209081526040808320338452909152812080548592906105a6908490610eb9565b90915550506001600160a01b0384165f90815260026020526040812060010180548592906105d5908490610eb9565b9091555050604051635d043b2960e11b8152600481018490526001600160a01b03838116602483015230604483015285169063ba087652906064016020604051808303815f875af115801561062c573d5f803e3d5ffd5b505050506040513d601f19601f820116820180604052508101906106509190610e87565b604080518281526020810186905291925033916001600160a01b038716917ff341246adaac6f497bc2a656f546ab9e182111d630394f0c57c710a59a2cb567910160405180910390a39392505050565b6106a8610b56565b6106b15f610b82565b565b60015433906001600160a01b031681146106eb5760405163118cdaa760e01b81526001600160a01b0382166004820152602401610353565b6106f481610b82565b50565b6106ff610b56565b600180546001600160a01b0383166001600160a01b0319909116811790915561072f5f546001600160a01b031690565b6001600160a01b03167f38d16b8cac22d99fc7c124b9cd0de2d3fa1faef420bfe791d8c362d765e2270060405160405180910390a350565b6001600160a01b0383165f9081526002602052604081205460ff16156107bb5760405162461bcd60e51b8152602060048201526009602482015268656d657267656e637960b81b6044820152606401610353565b5f846001600160a01b03166338d52e0f6040518163ffffffff1660e01b8152600401602060405180830381865afa1580156107f8573d5f803e3d5ffd5b505050506040513d601f19601f8201168201806040525081019061081c9190610e9e565b90506108336001600160a01b038216333087610b9b565b6108476001600160a01b0382168686610bd7565b604051636e553f6560e01b8152600481018590523060248201526001600160a01b03861690636e553f65906044016020604051808303815f875af1158015610891573d5f803e3d5ffd5b505050506040513d601f19601f820116820180604052508101906108b59190610e87565b6001600160a01b038087165f9081526003602090815260408083209388168352929052908120805492945084929091906108f0908490610ecc565b90915550506001600160a01b0385165f908152600260205260408120600101805484929061091f908490610ecc565b909155505060408051858152602081018490526001600160a01b0380861692908816917fdcbc1c05240f31ff3ad067ef1ee35ce4997762752e3a095284754544f4c709d7910160405180910390a3509392505050565b61097d610b56565b6001600160a01b0381165f908152600260205260409020805460ff16156109da5760405162461bcd60e51b8152602060048201526011602482015270616c726561647920656d657267656e637960781b6044820152606401610353565b805460ff191660011781556040516370a0823160e01b81523060048201525f906001600160a01b038416906370a0823190602401602060405180830381865afa158015610a29573d5f803e3d5ffd5b505050506040513d601f19601f82011682018060405250810190610a4d9190610e87565b90508015610ad057604051635d043b2960e11b815260048101829052306024820181905260448201526001600160a01b0384169063ba087652906064016020604051808303815f875af1158015610aa6573d5f803e3d5ffd5b505050506040513d601f19601f82011682018060405250810190610aca9190610e87565b60028301555b826001600160a01b03167f57ffbb5a6ee8a2ffcfe49581a3c44cc042f09353092758bcbe3c0d96de6b30528360020154604051610b0f91815260200190565b60405180910390a2505050565b610b298383836001610c29565b610b5157604051635274afe760e01b81526001600160a01b0384166004820152602401610353565b505050565b5f546001600160a01b031633146106b15760405163118cdaa760e01b8152336004820152602401610353565b600180546001600160a01b03191690556106f481610c8b565b610ba9848484846001610cda565b610bd157604051635274afe760e01b81526001600160a01b0385166004820152602401610353565b50505050565b610be38383835f610d47565b610b5157610bf483835f6001610d47565b610c1c57604051635274afe760e01b81526001600160a01b0384166004820152602401610353565b610b298383836001610d47565b60405163a9059cbb60e01b5f8181526001600160a01b038616600452602485905291602083604481808b5af1925060015f51148316610c7f578383151615610c73573d5f823e3d81fd5b5f873b113d1516831692505b60405250949350505050565b5f80546001600160a01b038381166001600160a01b0319831681178455604051919092169283917f8be0079c531659141344cd1fd0a4f28419497f9722a3daafe3b4186f6b6457e09190a35050565b6040516323b872dd60e01b5f8181526001600160a01b038781166004528616602452604485905291602083606481808c5af1925060015f51148316610d36578383151615610d2a573d5f823e3d81fd5b5f883b113d1516831692505b604052505f60605295945050505050565b60405163095ea7b360e01b5f8181526001600160a01b038616600452602485905291602083604481808b5af1925060015f51148316610c7f578383151615610c73573d5f823e3d81fd5b6001600160a01b03811681146106f4575f80fd5b5f8060408385031215610db6575f80fd5b8235610dc181610d91565b91506020830135610dd181610d91565b809150509250929050565b5f60208284031215610dec575f80fd5b8135610df781610d91565b9392505050565b5f805f60608486031215610e10575f80fd5b8335610e1b81610d91565b9250602084013591506040840135610e3281610d91565b809150509250925092565b634e487b7160e01b5f52601160045260245ffd5b80820281158282048414176102f9576102f9610e3d565b5f82610e8257634e487b7160e01b5f52601260045260245ffd5b500490565b5f60208284031215610e97575f80fd5b5051919050565b5f60208284031215610eae575f80fd5b8151610df781610d91565b818103818111156102f9576102f9610e3d565b808201808211156102f9576102f9610e3d56fea264697066735822122097f5f94307108ca09ea7e2a2751dc74858057727903907f42580c7b50c4d41a364736f6c634300081a0033","linkReferences":{}},"methodIdentifiers":{"acceptOwnership()":"79ba5097","deposit(address,uint256,address)":"f45346dc","emergencyClaim(address)":"472db2f1","owner()":"8da5cb5b","pendingOwner()":"e30c3978","previewUserAssets(address,address)":"333d466c","renounceOwnership()":"715018a6","transferOwnership(address)":"f2fde38b","triggerEmergency(address)":"f868f5e3","userShares(address,address)":"1142160c","vaultStates(address)":"5f49202f","withdraw(address,uint256,address)":"69328dec"},"id":27}